:1000000000800020BD010000056A0000C9690000F1
:10001000C9690000C9690000C9690000C969000018
:10002000C9690000C9690000C9690000056A0000CB
:10003000056A0000C9690000056A0000B96900008E
:10004000056A0000056A0000056A0000056A0000F4
:10005000056A0000056A0000056A0000056A0000E4
:10006000056A0000056A0000056A0000056A0000D4
:10007000056A0000056A0000056A0000056A0000C4
:10008000056A0000056A0000056A0000056A0000B4
:10009000056A0000056A0000056A0000056A0000A4
:1000A0003D2C0000056A0000056A0000056A00009A
:1000B000056A0000056A0000056A0000056A000084
:1000C000056A0000056A0000056A0000056A000074
:1000D000056A0000056A0000056A0000056A000064
:1000E000056A0000056A0000056A0000056A000054
:1000F000056A00006D7F0000056A0000658400004D
:10010000056A000081880000056A0000056A000099
:10011000056A0000056A0000056A0000056A000023
:10012000056A0000056A0000056A0000056A000013
:10013000056A0000056A0000056A0000056A000003
:10014000056A0000056A0000056A0000056A0000F3
:10015000056A0000056A0000056A0000056A0000E3
:10016000056A0000155E0000056A0000056A0000CF
:10017000056A0000056A0000056A0000056A0000C3
:10018000056A0000056A0000056A0000056A0000B3
:10019000056A0000056A0000056A0000056A0000A3
:1001A000056A0000056A0000056A0000056A000093
:1001B000056A0000056A0000B5770000574B4CF255
:1001C000205210B51A804DF628121A8000BF00BFC9
:1001D00006F01CFC524B4FF010621A60514A9A60B4
:1001E000514ADA60A3F53043203B1A6812F480725A
:1001F00004D14E490A604FF4A8521A604C4B1A7849
:10020000110703D51A7842F008021A70494B4A4C7C
:100210004A482A221A704A4A00239918A14203D256
:10022000195899500433F8E7464B474900228B424E
:1002300002D243F8042BFAE74448454900235A58B0
:100240001A500433B3F5DE7FF9D1424B424A802184
:1002500003F8011B9342FBD1404B3C4A1A60404BD0
:100260000A221A70A3F5805324225A70A0221A7011
:100270009A799207FCD59A79D406FCD4394A9379B5
:1002800003F00C03082B374BF9D103221A714022DB
:100290005A719A799006FCD5324A9179314B4906C8
:1002A000FBD5314A314911600221516020221A7078
:1002B0009A7902F00C020C2AFAD12D4B2D4A1A60C1
:1002C0002D4B2E4A1A6000225A60072243F8042C54
:1002D0002B4AC3F80C2D62B606F02CFE134B1B689C
:1002E000DA0705D5274806F08BFD274B274A1A6009
:1002F000274B1B785B0609D5234C244A236893427D
:1003000004D1204806F07CFD002323600BF034F874
:1003100006F082FB07F04EFBFEE700BF0E20054013
:1003200030800440823F04000100002B14D00340C1
:1003300002D0074000E0074014ADFF1F30FC010071
:10034000609DFF1F14ADFF1F74CBFF1F0098FF1FA0
:100350000000000000E400E05FE400E008ED00E0E1
:100360000050064000400640448004400000030165
:1003700004800440C010050014E000E0FF76010096
:100380000000202072E5FD551CE00340A5C3945AEF
:1003900000F00740FFFFFFFFFFFFFFFFFFFFFFFF32
:1003A000FFFFFFFFFFFFFFFFFFFFFFFFFFFFFFFF5D
:1003B000FFFFFFFFFFFFFFFFFFFFFFFFFFFFFFFF4D
:1003C000FFFFFFFFFFFFFFFFFFFFFFFFFFFFFFFF3D
:1003D000FFFFFFFFFFFFFFFFFFFFFFFFFFFFFFFF2D
:1003E000FFFFFFFFFFFFFFFFFFFFFFFFFFFFFFFF1D
:1003F000FFFFFFFFFFFFFFFFFFFFFFFFFFFFFFFF0D
:10040000FFFFFFFFFFFFFFFFFFFFFFFFFEFFFFFFFD
:1004100010B5054C237833B9044B13B10448AFF33E
:1004200000800123237010BD14ADFF1F00000000E9
:1004300028FC010008B5064B1BB106480649AFF37E
:1004400000800648036813B1054B03B1984708BD07
:100450000000000028FC010018ADFF1F14ADFF1FB5
:100460000000000038B5054D05F16804103D204638
:1004700007F0A8FA143CAC42F9D138BDBCBDFF1F4F
:1004800010B4194B5B6C1A6814785A6811785A7A50
:1004900011409A7A02F00302187A044218BF42F01F
:1004A000040209B142F0080291109972013A0D2A32
:1004B00017D8DFE802F0070B0F0B16130707131608
:1004C0000B0F0B07DA680132DA600AE0DA68013AEA
:1004D000DA6006E0DA680232DA6002E0DA68023AEC
:1004E000DA605DF8044B704718C7FF1F10B4194B52
:1004F0001B6C1A6814785A6811785A7A11409A7AE3
:1005000002F00302187A044218BF42F0040209B153
:1005100042F0080291109972013A0D2A17D8DFE8CB
:1005200002F0070B0F0B1613070713160B0F0B0721
:10053000DA680132DA600AE0DA68013ADA6006E085
:10054000DA680232DA6002E0DA68023ADA605DF80C
:10055000044B704718C7FF1F0F4B036041720261C5
:1005600000230372C36039B11946026942F82310AF
:100570000133427A9A42F8DC084B1A680AB91860CB
:1005800004E053690BB11A46FBE750610023436155
:100590008380C380704700BFB8F0000054C9FF1FBC
:1005A000144B03600423437200F12803036100230A
:1005B0000372C3601946026942F823100133427A7C
:1005C0009342F8DB0C4B1A680AB9186004E05369CF
:1005D0000BB11A46FBE75061002343618380C3805F
:1005E000064B03604FF480338361C361036243624F
:1005F000704700BFB8F0000054C9FF1FB0F50000FD
:100600000F4B03600023437203610372C3600D4B01
:100610001A680AB9186004E053690BB11A46FBE77F
:100620005061002343618380C380074A02600383D3
:100630004383C3610362436203854385C36270479A
:10064000B8F0000054C9FF1FA0F500002DE9F04FDD
:1006500083B00001254B03EB000A254B03440193B3
:1006600000242546234F4FF08F484FF000095AF8D9
:100670000460032D33D8304639460AF041FB28B9CF
:10068000304649460AF01EFB18B101E03E4600E044
:100690004E46DFF864B0A344304641460AF074F990
:1006A0000AF038FBCBF81800019B1E59304639463A
:1006B0000AF026FB28B9304649460AF003FB18B178
:1006C00001E03E4600E04E46DFF830B0A34430463D
:1006D00041460AF059F90AF01DFBCBF81800013524
:1006E0000434042DC3D103B0BDE8F08F6C9DFF1F0F
:1006F0009C9DFF1F00FEFF4664BEFF1FF0C1FF1F51
:1007000010B592B004464FF08042704B1A607048AA
:100710002021552201F0CAFF38B16D48C28842F04D
:100720000402242192B201F0C1FF0020FFF78EFFE6
:100730000022684B1A83684B1A83684B47F6FF7197
:10074000198367495962DA611A85664B664AD36133
:10075000012B09D913468022009203F12000642165
:10076000604A2C3308F0A6FD604B614AD361012B2F
:1007700009D913468022009203F1200064215B4ACC
:100780002C3308F097FD24F00203012B0FD1594BB5
:10079000594AD361012B19D913468022009203F1E3
:1007A00020006421534A2C3308F084FD0EE0534BA3
:1007B000514AD361012B09D913468022009203F1DB
:1007C000200064214D4A2C3308F074FD032C76D8A8
:1007D000DFE804F0591F3C02494B4A4AD361012B20
:1007E00009D913468022009203F120007821444A5F
:1007F0002C3308F05FFD032000F0F8FF02A8424907
:1008000007F02CF902A800F069FF02A807F0DAF857
:1008100055E03E4B3B4AD361012B09D91346802258
:10082000009203F120003621384A2C3308F042FDB3
:10083000022000F0DBFF06A8354907F00FF906A8F3
:1008400000F04CFF06A807F0BDF838E02C4B2D4A0D
:10085000D361012B09D913468022009203F12000B5
:100860007821274A2C3308F025FD012000F0BEFF37
:100870000AA8284907F0F2F80AA800F02FFF0AA8F2
:1008800007F0A0F81BE0214B1E4AD361012B09D9C8
:1008900013468022009203F1200036211B4A2C339C
:1008A00008F008FD002000F0A1FF0EA81A4907F08B
:1008B000D5F80EA800F012FF0EA807F083F84FF04D
:1008C0008042164B1A6012B010BD00BF88E100E0F4
:1008D00030ADFF1F04C3FF1F9CBEFF1F04BFFF1FDF
:1008E0008027EA1FBCA1FF1F88ADFF1F9C9EFF1F32
:1008F000B0B0FF1FD49DFF1FF4BAFF1F2CA0FF1F35
:10090000F0A2FF1F34BFFF1FC0F0000084A2FF1F32
:10091000C4F00000C8F00000CCF0000008E100E0E6
:1009200010B584B00020022106F0ACFA1520022197
:1009300006F0A8FA1420022106F0A4FA06200221EB
:1009400006F0A0FA0A20022106F09CFA05200121F7
:1009500006F098FA0520002106F062FA324C204693
:100960000A2103F0B3F82046052103F0C5F808205A
:10097000012106F087FA0420012106F083FA042001
:10098000012106F04DFA0820002106F049FA042062
:10099000012106F077FA2548102106F0EBFD244CE2
:1009A000204601F0DFFE2046402101F049FFE288A9
:1009B00022F480722046242101F078FE1D4B1A7823
:1009C00042F005021A7000F003FE68461A4907F06B
:1009D00063F8684600F0A2FE684606F0F3FFBC200C
:1009E00006F0C4FD04465521144A04F0FBFE144BE6
:1009F0001C6023784BB9134803685B6812491022C6
:100A0000984742F2107006F081FA104BD96B0C4BEC
:100A10001868890004F04EFE032006F077FA0020E3
:100A2000FFF76EFE04B010BD40ADFF1F0082FF1F38
:100A300030ADFF1FA0C9FF1FFCBDFF1F00605B039F
:100A400044B0FF1F90C9FF1FD0F00000BCBDFF1FC6
:100A500010B582B04FF08042604B1A600023604AAC
:100A6000D361604AD361032800F2B180DFE800F06F
:100A70003271021A5C4B47F6FF7018835B4959626A
:100A80000022DA611A855A4B188359621A854FF091
:100A90000052DA610220FFF7D9FD5648202101F00B
:100AA000CFFE94E0504B47F6FF741C834F485862CA
:100AB000002119854E4A14835062D16111854FF08F
:100AC0000052DA610220FFF7C1FD4A48202101F0FF
:100AD000B7FE7CE0484B494AD361012B09D9134644
:100AE0008022009203F120006421434A2C3308F055
:100AF000E1FB434B434AD361012B09D913468022C2
:100B0000009203F1200064213D4A2C3308F0D2FB0F
:100B10000120FFF79BFD37482A2140F2731201F0B4
:100B2000C5FD60B133482021882201F0BFFD30B1FE
:100B30003048C28822F00402242101F0B7FD2D4C78
:100B400020461E2101F0BAFE2046672101F078FE02
:100B50003DE02B4B294AD361012B09D91346802252
:100B6000009203F120006421254A2C3308F0A2FBF7
:100B7000214B244AD361012B09D9134680220092CC
:100B800003F1200064211C4A2C3308F093FB012060
:100B9000FFF75CFD17482A2140F2731201F086FD31
:100BA00060B114482021882201F080FD30B1114845
:100BB000C28822F00402242101F078FD0D4C204669
:100BC0001E2101F07BFE2046672101F039FE4FF027
:100BD00080420D4B1A6002B010BD00BF88E100E0FA
:100BE000F4BAFF1F34BFFF1F04C3FF1F3CEB070213
:100BF0009CBEFF1F30ADFF1FF4A0FF1F88ADFF1F7D
:100C0000649FFF1FB0B0FF1F08E100E010B504466D
:100C1000A0F57423A3F510731B4A934207D8042050
:100C2000002106F0FDF80820002106F0F9F8A4F5EF
:100C30007413A3F51063144A934207D804200021CB
:100C400006F0EEF80820012106F0EAF80F4B2344E5
:100C50000F4A934207D80420012106F0E1F808204A
:100C6000002106F0DDF8A4F57404A4F51054094B36
:100C70009C4207D80420012106F0D2F80820012167
:100C800006F0CEF810BD00BFBFC62D00403095FF66
:100C90003F5489007F9FD5002DE9F84FB94C20467D
:100CA000B94B40F8043BB94906F0D8FEB84B636134
:100CB00004F11800B74906F0D1FEB74BA36204F166
:100CC0002C00B64906F0CAFEB54BE36304F14000C0
:100CD000B44906F0C3FEB44B236504F15400B34994
:100CE00006F0BCFEB24B636604F16800B14906F041
:100CF000B5FE0020B049B14A0AF028FBB0480221F5
:100D00000322012303F02EF91020022106F0BAF885
:100D10001120022106F0B6F8AA4AD2F88010AA4B98
:100D200001F50070186001201872D2F8882002F5D1
:100D300000745C6058720020D8604FF47A43013B25
:100D40007FF4FDAF91F8003203F0010392F8002226
:100D500012F0010F1CBF43F00203DBB29A4CA372E6
:100D60009A4E346410209A49042205F0E9FF0125C7
:100D70002574746411209749042205F0E1FF237C57
:100D80002B442374944802F099FE944841F2883130
:100D900000F050FF9248642100F04CFF914832214E
:100DA00000F048FF90480A2100F044FF8F480A21D4
:100DB00000F040FF8E4800210A46FFF7CDFB8D4B27
:100DC0008B4A1360104601F015F8DFF898A25046E0
:100DD00029460AF11802FFF7BFFB874ECAF80060E8
:100DE0000024CAF81C40DFF880824046294608F1FA
:100DF0001802FFF7B1FBC8F80060C8F81C407F4834
:100E0000294600F11802FFF7A7FB7C4B1E60DC614E
:100E10007B4F3846294607F11802FFF79DFB3E60DD
:100E2000FC617848FFF7BCFB774E3046294606F256
:100E30002472FFF791FB754B3360754BC6F8183180
:100E4000C6F81C4186F82047082386F8213786F823
:100E5000224706F5E5604FF4807122462B4608F0E4
:100E60004DF96C48FFF7CCFB6B48FFF7C9FB6B48AB
:100E7000FFF7C6FB6A48022100F11802FFF76CFB7E
:100E8000684B674A13606848294600F11802FFF76B
:100E900063FB664B644A136047F6FF73D3834FF4DA
:100EA0000049A2F820906248FFF77AFB6148FFF7FB
:100EB00077FBDFF8B8B1584629460BF11802FFF767
:100EC0004BFB5A4ACBF8002047F6FF73ABF81E30B5
:100ED000ABF82090DFF898914846022109F11802FA
:100EE000FFF73AFB544BC9F80030484601F0D0F9FF
:100EF000524A534B1A6053483D4A0260C0F804A05E
:100F000004724472C46006F027FC4F48384B0360FB
:100F1000C0F8048005724472C46006F01DFC4B48A2
:100F2000C0F800A0374A426004724472C46006F000
:100F300013FC4748C0F80080324B4360047245728E
:100F4000C46006F009FC43482E4A02604660047201
:100F50004472C46006F000FC3F482A4B0360274AF5
:100F6000426004724472C46006F0F6FB3B48234BB7
:100F700003602B4A426004724472C46006F0ECFBCA
:100F8000374877E0BCBDFF1F60A03600E4F00000EA
:100F9000404B4C00E8F00000808D5B00ECF000005E
:100FA000006C6B00F0F0000060F59000F4F00000C1
:100FB000B8579A00F8F0000065040000609DFF1F1C
:100FC000CCBEFF1FA4FE0000ECC2FF1F18C7FF1F0E
:100FD000ED0400008104000040ADFF1F28C2FF1F88
:100FE00038C2FF1FB0BDFF1F38C3FF1FD0C2FF1F95
:100FF00078C2FF1F60F5000070F50000F4BAFF1F13
:1010000034BFFF1F58B0FF1F7CB3FF1FF0F5000077
:1010100054F3000004BFFF1F04C3FF1F9CBEFF1F4B
:1010200044C3FF1F80F5000064C3FF1FC0F500002C
:1010300064BEFF1FF0C1FF1F90F50000D0F5000057
:1010400030ADFF1FB4BAFF1FC4BAFF1FD4BAFF1FD1
:10105000E4BAFF1F48ADFF1F58ADFF1F68ADFF1F6B
:1010600078ADFF1F88ADFF1FB0B0FF1F44C2FF1F48
:1010700034BEFF1F3A4B03603A4A42600472457225
:10108000C46006F069FB3848364B03604760047261
:101090004472C46006F060FB34480760344A426022
:1010A00004724472C46006F057FB32480760324B4A
:1010B000436004724472C46006F04EFB2F48076020
:1010C0002F4A426004724472C46006F045FB2D480A
:1010D000C0F800A0284B436004724572C46006F05B
:1010E0003BFB2948C0F80080254A426004724572E3
:1010F000C46006F031FB2548254B03601E4A426060
:10110000047202264672C46006F026FB2148224B78
:1011100003601B4A426004724672C46006F01CFB06
:101120001E48154B0360C0F804B004724472C460DA
:1011300006F012FB1A48104A0260C0F804900472CC
:101140004472C46006F008FB16480D4B0360C0F8FB
:10115000049004724572C46006F0FEFABDE8F88F90
:1011600004BFFF1F44C3FF1F68C2FF1F48B0FF1F1B
:1011700064C3FF1FC0C2FF1F64BEFF1F54BEFF1F1A
:10118000F0C1FF1F90B0FF1FA0B0FF1FDCC2FF1F08
:1011900004C3FF1F6CB3FF1F9CBEFF1F90C2FF1F45
:1011A000A0C2FF1FB0C2FF1F2DE9F04186B0954BD2
:1011B0001B7C012B35D872B6924B1A6810785A688E
:1011C00011785A7A11409A7A02F003021B7A184277
:1011D00018BF42F0040209B142F008029110894B95
:1011E0009972013A0D2A1DD8DFE802F0070C110CA4
:1011F0001C160707161C0C110C07824BDA6801320B
:10120000DA600FE07F4BDA68013ADA600AE07D4B82
:10121000DA680232DA6005E07A4BDA68023ADA60BC
:1012200000E072B6774BDB6862B6774A1360774AA4
:1012300012689A423ED09C1A744A1360062005F048
:1012400013FE60B1724B1B7872499A00D01804EB00
:10125000840451F820301C4441F820400CE06C4BD1
:101260001B786C499A00D01851F820304FF4FA726C
:1012700002FB043441F82040664C654D2B7803EBAB
:10128000830354F82310644B1868890004F012FAA1
:101290002B7803EB830342F6F82654F823003044FE
:1012A000FFF7B4FC2B7803EB830354F8230030449E
:1012B00000F054FA594800F0C7FC01287AD10F20F9
:1012C00005F072FA09F00CFB554909F011FC55497B
:1012D00009F05AFB544909F04FFA09F041FD014663
:1012E000524801F0ADFA152005F0BEFDB0B9504BE3
:1012F0001B78B3B94F4B1B780133DBB2032B02D8F9
:101300004C4A137002E000224A4B1A70494B18787D
:10131000FFF7F6F90122464B1A7002E00022444B17
:101320001A70142005F0A0FD002840D1424B1B7814
:10133000002B3FD1364B1B780133DBB2052B02D893
:10134000334A137002E00022314B1A70314C304D99
:101350002B7803EB830304EB830102A8043106F02E
:101360009BFB02A800F0DAF902A806F02BFB2B7811
:1013700003EB830354F82310274B1868890004F00B
:1013800099F92B7803EB830342F6F82654F82300EF
:101390003044FFF73BFC2B7803EB830354F8230026
:1013A000304400F0DBF90122234B1A7002E00022E6
:1013B000214B1A70214C204602F0A0FB204602F07F
:1013C000CDFB00286BD11E4C20461F2102F0B4FD3E
:1013D00020464B21482202F0ABFD23685B68204683
:1013E000184902229847134B1878FFF731FB022067
:1013F00005F08CFD0520012105F012FD124E0F4C69
:10140000124D35E0ECC2FF1F00C3FF1F649DFF1F9C
:10141000689DFF1FBCBDFF1F44B0FF1FB0BDFF1F75
:1014200000C07F4400000143EE7CFF3E30ADFF1F53
:101430003CADFF1F34C2FF1F34C3FF1F40ADFF1F71
:10144000CCBEFF1FFCF000007CB3FF1F38C3FF1FA2
:10145000204602F053FB284600F0F6FB012807D196
:1014600096F8223723B1002386F8223700F0E2F8FD
:10147000204602F073FB0028EAD00520002105F089
:10148000CFFC434B1878FFF73BF90A230093002366
:10149000019340484B2148220B2303F08FFC00F0BE
:1014A00013FA3D4800F0D0FB012801D100F0C2F84A
:1014B0003A4800F0C9FB01280AD10420012105F0B7
:1014C000AFFC012005F022FD0420002105F0A8FC5E
:1014D000334800F0B9FB012856D1324E33685B68BF
:1014E0003046314907229847304B188809F0F8F9FF
:1014F0002F4909F041F92F4909F0FAFA08F0D8FD0F
:1015000002460B4602270097304605F0F5FD33688A
:10151000DFF8B8805B68304641463A469847264B2C
:10152000188809F0DDF9224909F026F9214909F066
:10153000DFFA08F0BDFD02460B460097304605F085
:10154000DBFD33685B6830461C490A229847304609
:101550001B4B19780A22002305F090FD33685B6865
:10156000304641463A4698473046164B19780A228B
:10157000002305F083FD33685B6830461249012281
:101580009847304605F06AFD06B0BDE8F08100BF1F
:1015900034C2FF1FCCBEFF1F38C3FF1FD0C2FF1FC6
:1015A00028C2FF1F90C9FF1F00F100007CC9FF1F68
:1015B0007B14AE427B142E4362C9FF1F0CF1000066
:1015C00061C9FF1F58C9FF1F18F1000008F1000092
:1015D00010B582B0154C2046022103F063F9204675
:1015E000012103F0CBFC2046002102F0ABFC204699
:1015F0000021732202F09CFC20464FF6FF7102F09E
:101600009BFC2046012102F09BFC23685B6820467E
:1016100007490E2298471F2300932046502100229D
:101620003C2303F04DFA02B010BD00BFCCBEFF1F3B
:101630001CF100002DE9F04383B0234B1C6804F13A
:101640001002224B1A60A4B223B29A422DDD204F21
:10165000204E214DDB0086FB0312DB17C3EBA203F8
:1016600007EB43031B8B22B2502A17D03C2BA8BF99
:101670003C23C3F13C0891460FFA88F84FF4FC6212
:1016800000922846494642461BB203F019FA00224E
:10169000009228464946434603F012FA0234A4B2A7
:1016A00023B20A4A12689342D4DB074B1B681033FB
:1016B0009F2B02DC044A136002E00022024B1A60F6
:1016C00003B0BDE8F08300BF8CC3FF1F88C3FF1FBA
:1016D0007CB3FF1F67666666CCBEFF1F30B583B064
:1016E00005460D4C072300930023019320467D21DE
:1016F00055221E2303F062FB20464FF6FF7102F0D5
:101700001BFC20467D21552202F012FC2046294672
:1017100005F07EFC03B030BDCCBEFF1F30B583B0FA
:1017200005460D4C072300930023019320466421B6
:101730005522132303F042FB20464FF6FF7102F0BF
:10174000FBFB20466421552202F0F2FB204629468D
:1017500005F05EFC03B030BDCCBEFF1F70B596B087
:101760001D4A82FB0032C117C1EBA2421B4D05FB93
:1017700012051B4C84FB0563ED1784FB0064C1EB71
:10178000A4114FF47A7404FB1100009002A81549CB
:10179000C5EBA3130AF072FB134C782300930023CC
:1017A00001932046642173220B4603F007FB204679
:1017B0006421732202F0BCFB20464FF6FF7102F059
:1017C000BBFB02A80AF0DEFB024623685B682046EA
:1017D00002A9984716B070BD83DE1B4340420F003C
:1017E000D34D62102CF10000CCBEFF1F70B582B04B
:1017F00005462D4E00240094304621463D22A0236C
:1018000003F01CFA0094304621463E22A02303F048
:1018100015FA032D46D8DFE805F035241302224CD3
:101820001F250095204648213D22062303F006FA95
:101830000095204648213E22062303F0FFF931E0BF
:10184000194C1F25009520463D210A46142303F01C
:10185000F5F9009520463D213E22142303F0EEF9D0
:1018600020E0114C1F250095204653213D220623E0
:1018700003F0E4F90095204653213E22062303F0AD
:10188000DDF90FE0084C1F250095204650213D2230
:10189000142303F0D3F90095204650213E2214234F
:1018A00003F0CCF902B070BDCCBEFF1F08B50448F0
:1018B000012100F0BFF90348C82100F0BBF908BDC1
:1018C000C8C3FF1F90C3FF1F2DE9F04397B09D4889
:1018D00000F0BAF9012840F09F8172B69A4B1B7F45
:1018E00003F0FF0213B10021974B197762B69AB14A
:1018F00072B6954BB3F92000B3F91E20801A47F653
:10190000FF72DA834FF400421A8462B608F0E8FFEF
:101910008E4909F0EDF806468D4C25786B1C237036
:1019200072B68C4BB3F92000B3F91E20801A47F62B
:10193000FF72DA834FF400421A8462B608F0D0FFD7
:10194000824909F0D5F88146834B43F82500237876
:10195000012B01D900222270804B1C687E4B1F682E
:101960004FF001053846214609F0CAF908B94FF091
:101970000005EDB2784BD3F804804046214609F0CB
:10198000BFF908B10135EDB2022D04D0E5B1744BB9
:101990001B881D2B18D93846002109F0B1F900B970
:1019A00000273846414609F08DF900B9B8466D4D1B
:1019B0002046296808F0E8FF414609F099F82860B8
:1019C0000022674B1A802BE02046494609F098F91F
:1019D00018B1634B1A8801321A80614B1B881D2B8A
:1019E0001ED9604B1868604908F0CEFF04465F4975
:1019F00009F086F9002840F0EC802046002109F02B
:101A000061F9002840F0DD802046584909F078F956
:101A100028B92046002109F055F908B100E0FFE798
:101A2000504B1C6820464FF0804109F069F940B1E5
:101A30004FF080444B4B1C604FF400324C4B9A618A
:101A400025E02046494909F05BF9002840F0CD80A7
:101A50002046002109F036F9002840F0BB802046DE
:101A60004FF08F4108F090FF09F054F9404B986116
:101A700020463E4909F044F930B92046002109F0DA
:101A800021F920B1002402E0384C00E0374C204618
:101A90004FF08F4108F078FF09F03CF9354B986121
:101AA000354800F0D1F8012840F0B680304633497F
:101AB00008F06AFF08F0FCFA07F06CFE0022304BD9
:101AC00008F04AFB08F002FE05462E4908F054FED5
:101AD0002D4909F00DF84FF07E5108F04DFE0446F7
:101AE000002109F0EFF8002840F0848020462749C3
:101AF00009F006F900287ED02846254908F03AFE6C
:101B00000446244E072300930025019530460A2100
:101B100055221E2303F052F930462946552202F081
:101B200007FA2046002109F0C3F8002836D0174CE8
:101B3000204608F0BDFA02460B4602A816490AF0F4
:101B40009DF934E0C8C3FF1F64C3FF1F00FF7F4738
:101B5000D4C3FF1F44C2FF1F9CC3FF1FD09DFF1FA4
:101B6000C4C3FF1FCC9DFF1F6666863F00FEFF4675
:101B700064BEFF1FF0C1FF1F90C3FF1F00007A4427
:101B800000003440000060410000C04000001041EF
:101B900000000842CCBEFF1F3CF10000204608F0C8
:101BA00087FA02460B4602A81D490AF067F902A807
:101BB0000AF0E8F902461B4801684C6802A9A047F0
:101BC0002AE02046184909F09BF800283FF426AF88
:101BD00026E725E70022154B9A612046124909F0B5
:101BE0008FF800283FF44EAF50E7114A0F4B9A612F
:101BF0000D4C4CE700240B4E072300930025019564
:101C000030460A2155221E2303F0D8F830462946D3
:101C1000552202F08DF98BE717B0BDE8F08300BFC5
:101C200044F10000CCBEFF1F00FEFF4664BEFF1F54
:101C30000000FF7F002202708160024A1268426049
:101C4000704700BF3CC9FF1F0A4B19684268836890
:101C5000891A99420BD30BB1017821B1054B1B684E
:101C60004360012070471344436001207047002007
:101C7000704700BF3CC9FF1F10B5044605F060FB6C
:101C8000204610BD08B503480349044A09F05EFB2D
:101C900008BD00BFD8C3FF1F791C0000609DFF1F57
:101CA00008B503480349044A09F050FB08BD00BFCA
:101CB000E0C3FF1F791C0000609DFF1F30B41E4B66
:101CC0001A68126919791D4B19701D4B9A420CD272
:101CD0001C4B1B786BB14FF080421B4B1A601B4BA7
:101CE00003F5007403F5807308E0184B03F5807466
:101CF00004E0164B03F5007403F58073144A116871
:101D0000144A1268A9B1A2B113480088402810D81B
:101D10004500294404312A44043240300E4D2880C5
:101D2000188821F8020B588822F8020B04339C42D1
:101D3000F6D830BC704700BFF0C3FF1F1F800040C3
:101D40004093FF1FEAC3FF1F08E200E04092FF1F1D
:101D5000F8C3FF1FECC3FF1FE8C3FF1FF8B506461B
:101D600005F038FC044640B105F034FC054628B9BE
:101D7000204605F08BFC002400E0002572B61A4BCB
:101D80001B887F2B19D9194B1F681C60184B1C68C6
:101D90001D600022144B1A8062B63046394605F0A9
:101DA00095FC384605F072FC30462146012205F0CC
:101DB0008DFC204605F06AFCF8BD9CB10B4B1B68FE
:101DC00043B90A4B1C600A4B1D600022064B1A8067
:101DD00062B6F8BD62B6204605F058FC284605F00C
:101DE00055FCF8BD62B6F8BDE8C3FF1FF8C3FF1F7E
:101DF000ECC3FF1F10B5324C2046012105F042FA1A
:101E000000F0DEF94FF480622E4B1A6023681A68E6
:101E100000222D49196023681A715A7101219971A4
:101E2000D971022119725A729A72DA721A735A733C
:101E30009A73DA7318692548186119755A75D98A21
:101E40004FF48071D9821A766FF0010058764FF006
:101E5000FF309876D876D88BD983998B06219983D1
:101E6000237903F1804303F504331A708E221A702C
:101E700005F08AFC164B18702279164B1A70164A18
:101E8000136843F0124343F001031360134B1A68C5
:101E900042F010421A60227902F110011048114BF1
:101EA00043F8210053119B0003F1604303F56143A4
:101EB00002F01F02012101FA02F21A6010BD00BFF8
:101EC000F0C3FF1F14B00440A0F002404092FF1F77
:101ED000EAC3FF1F1B80004080F0024000F0024078
:101EE000BD1C00000098FF1F08B503480349044AC1
:101EF00009F02CFA08BD00BFF0C3FF1F791C0000D9
:101F0000609DFF1F70B50446002105F0F5FB0546F6
:101F100028B3E36913B905F0B9FB70BD012B08D1F3
:101F200020462946002205F0D1FB284605F0AEFBED
:101F300070BD05F04FFB064670B104F12000291D6D
:101F4000321D802307F0CCF920463146002205F0EF
:101F5000BDFB304605F09AFB284605F097FB70BDA7
:101F60002DE9F8438146002105F0D2FB074648469B
:101F7000012105F0C1FB80462FB9002849D005F0AA
:101F800085FBBDE8F88320B9384605F07FFBBDE846
:101F9000F88307F582713B1D99422FD900F10C029D
:101FA00007F10C0300F1140E07F20B11C91A21F00E
:101FB00007018E4453F8086C53F8044C52F8081C7F
:101FC00052F8045C16FB31F020F3CF3016FB01F120
:101FD00021F3CF31C1EA004114FB35F020F3CF30BB
:101FE00014FB05F424F3CF34C4EA004443F8081C7E
:101FF00043F8044C083208337245DBD14846394671
:10200000002205F063FB384605F040FB404605F032
:102010003DFBBDE8F88300BF70B5344B1A68126809
:102020001979334B1970334B9A420CD2324B1B78CF
:102030006BB14FF08042314B1A60314D05F5807421
:1020400005F5007508E02E4C04F5807504E02C4D74
:1020500005F5807405F500752A4B1868D8B12A4B30
:10206000198800EB4103043333F8022B24F8042BC6
:10207000A542F9D840317F2902D8234B19800FE0BF
:102080000026214B1E8005F001FB204B1A681D49DC
:102090000A601E6004E0002324F8043BA542FBD83C
:1020A000FE3C1B4B1868D8B11A4B198800EB410352
:1020B000043333F8022B24F8042BA542F9D840311D
:1020C0007F2902D8134B198070BD0024114B1C804E
:1020D00005F0DCFA104B1A680D490A601C6070BDEF
:1020E000002324F8043BA542FBD870BD00C4FF1FA9
:1020F0001F8000404095FF1F18C4FF1F08E200E04A
:102100004094FF1F10C4FF1FFCC3FF1F1CC4FF1F10
:1021100008C4FF1F0CC4FF1F14C4FF1F10B50446E2
:10212000002105F0E9FA0146E0B172B61E4B1B68CA
:1021300033B91D4B186000221C4B1A8062B611E0A7
:102140001B4A12681AB91A4B186062B60AE01648A0
:102150000260174A11600021144A118062B61846C5
:1021600005F094FA2046012105F0C6FA0246D0B1E6
:1021700072B6104B186828B91A6000220E4B1A80EC
:1021800062B610BD0D4B1B681BB90C4B1A6062B6D2
:1021900010BD08490B60094B1A600022064B1A80DB
:1021A00062B605F073FA10BD10C4FF1FFCC3FF1F19
:1021B0001CC4FF1F08C4FF1F0CC4FF1F14C4FF1F53
:1021C00030B4254B1A6842F400421A60234A116861
:1021D00041F0020111601A6842F002021A60204BBD
:1021E0001B68002B36DB1F4B1B68002B32DB4FF0CC
:1021F00086421D4B1A6041F2100204331A6000241B
:10220000A43B1C6001205C3B1860184A04331A6030
:102210004FF4803104331960154A04331A60154BAA
:10222000154D2B60CC352C60144C2060144C154897
:1022300004600430016014490A60144A13604FF4CA
:10224000C06302F5DF3202F5BA7213600432136024
:102250000C32136030BC70473C8004404080044026
:1022600000F0024080F0024000F10240030000074D
:102270001B0F0100000F0F0F14F0024084F002400A
:102280000300004788F0024090F0024094F00240C2
:1022900038B5314D2846012104F0F4FF00242F4BBE
:1022A0001C602F4B1C60FFF78BFF4FF4C0622D4B5F
:1022B0001A602B681A682C4A1A602B6802221A715D
:1022C0005C7101219971D9711A725C729C72DC7215
:1022D0001C736FF001025A734FF0FF329A73DA7376
:1022E0001A69224A1A611C755C75DA8A4FF4807289
:1022F000DA821C765C769C76DC76D98BDA839A8BD4
:1023000006229A832B7903F1804303F504331C7072
:102310008F221A7005F038FA154B18702A79154B70
:102320001A70154A136843F0124343F00103136017
:102330002A7902F110011148114B43F82100531181
:102340009B0003F1604303F5614302F01F0201218A
:1023500001FA02F21A6038BD00C4FF1F10C4FF1F4B
:1023600008C4FF1F04B004404094FF1F20F0024047
:1023700018C4FF1F1B80004000F00240192000001D
:102380000098FF1F08B503480349044A08F0DEFF20
:1023900008BD00BF00C4FF1F791C0000609DFF1F27
:1023A0002DE9F8430446B0F91830002B00F0D28034
:1023B00005F010F90546002800F0CC800430B4F98F
:1023C0002830052B00F2AE80DFE803F0036A587E68
:1023D0002A9B05F5827E03464FF6FF775E4EE26943
:1023E000D10DC2F3CF12B4F918C0C2EB070836F909
:1023F0001190013136F9111002FB01F109FB0812AD
:10240000121402FB0CF2D21323F8022B616AE26968
:102410008A1848BF22F00042E2617345DFD181E0B3
:10242000E36A23B9284605F031F9BDE8F88305F5DC
:10243000827E03464FF6FF77E269D60DE16AC2F36A
:10244000CF12B4F918C031F91680C2EB0709013672
:10245000F6B231F9161002FB01F109FB0812121451
:1024600002FB0CF2D21323F8022B616AE2690A44E0
:1024700022F00042E2617345DED153E0AA1D8023C1
:10248000E16911F0804F218B18BF494222F8021CEC
:10249000666AE1693144E1610232013BF0D141E019
:1024A00005F582760346E26942F3CF32B4F918109B
:1024B00001FB02F2D21323F8022B616AE2690A449B
:1024C000E261B342EFD12DE005F582760246E36981
:1024D000002B278BBCBF7F42BFB2990013F0804F07
:1024E00018BF4942490C3BB203FB01F1C91322F862
:1024F000021B616AE36903EB4103E361B242E6D187
:1025000010E0AA1D8023E669216A8E42218B38BF24
:10251000494222F8021C666AE1693144E1610232F3
:10252000013BF0D1B4F92A3063B105F58271B0F9FD
:102530000030B4F92A20134403F30F0320F8023BC0
:102540008142F4D820462946002205F0BFF82846EB
:1025500005F09CF8BDE8F88350F1000010B400F5D8
:102560008074036831FB03F231FB13F302F30F02B3
:1025700003F30F03C2EA034340F8043B8442F0D163
:102580005DF8044B704700BF70B400F58076B2F57B
:10259000803F11D10023C258CC5892FA14F2C25095
:1025A000C2185468CD186D6894FA15F45460083355
:1025B000B3F5807FEFD112E051F8043B32FB03F515
:1025C00032FB13F305F30F0503F30F03C5EA0343CF
:1025D000046893FA14F440F8044B8642ECD170BCC2
:1025E000704700BF2DE9F04180460546002426468D
:1025F0006EB94046214605F08BF80646A8B1A96998
:10260000B1F5803F11D00430FFF7A8FF0DE0404640
:10261000214605F071F8074638B1301D391DAA6909
:10262000FFF7B2FF384605F031F801340435042CC9
:10263000DED13EB140463146002205F047F8304633
:1026400005F024F8BDE8F08108B503480349044AC1
:1026500008F07CFE08BD00BF20C4FF1F791C0000ED
:10266000609DFF1FF8B50646002105F045F80746B6
:10267000B8B1031D00F58275B6F91E40B6F92010F9
:1026800033F9022B9442A8BF14469142B8BF1146B9
:102690009D42F5D8F483318401233377384604F022
:1026A000F5FFF8BD002070470020704770B50D465B
:1026B0001646242908BFC280114C20460A2100F08A
:1026C0006BFC23681B682046C5F3072198472368E5
:1026D0001B682046E9B2984723681B682046C6F36A
:1026E0000721984723681B682046F1B29847204687
:1026F00000F058FCD0F1010038BF002070BD00BFD1
:1027000088C4FF1F10B5044679B920215522FFF770
:10271000CDFF034618B3E28842F00402204624218C
:1027200092B2FFF7C3FF034619E0012916D12A210F
:1027300040F27312FFF7BAFF034680B12046202112
:102740008822FFF7B3FF034648B1E28822F0040273
:1027500020462421FFF7AAFF034600E00023184685
:1027600010BD00BF38B5044601250571334800F09F
:1027700043FA052004F0CAFB2046302144F26002EF
:10278000FFF794FF204626216C22FFF78FFF20469B
:1027900028214FF4F972FFF789FF20462C2140F6DB
:1027A0002272FFF783FF20463C2144F24642FFF7A6
:1027B0007DFF2046242140F23712FFF777FF2046A5
:1027C000302144F2FF02FFF771FF204602217322FD
:1027D000FFF76CFF4FF4C87004F098FB20462E21E1
:1027E00041F61D52FFF762FF204604210A46FFF71B
:1027F0005DFF204606214FF49872FFF757FF2046F1
:102800000A211022FFF752FF20460E210022FFF777
:102810004DFF2046102143F63C42FFF747FF20467C
:10282000222147F67F72FFF741FF204624213622FE
:10283000FFF73CFF2572284638BD00BF88C4FF1F44
:1028400038B504460D4679B901230371222147F6B4
:102850007F72FFF72BFFE28842F01002204624210E
:1028600092B2FFF723FF38BD802994BFC1F18005E4
:10287000002503793BB100230371C28822F01002C6
:102880002421FFF713FF2046222145EA0522FFF706
:102890000DFF38BD10B504460846064908F074F827
:1028A000054907F069FF08F05BFA01462046FFF78B
:1028B000C7FF10BD00000143EE7CFF3E38B5054662
:1028C0000C46272903D9A1F1280403220BE01D2976
:1028D00003D9A1F11E04022205E0132986BFA1F14C
:1028E00014040122002228462A2142F4B872FFF77C
:1028F000DDFE70B16200084BA3FB021252080F2AE2
:1029000028BF0F222846202142EA0212FFF7CEFEFE
:1029100038BD002038BD00BFABAAAAAA08B503483D
:102920000349044A08F012FD08BD00BF28C4FF1F78
:10293000791C0000609DFF1FF8B50546002104F0DA
:10294000DBFE0646002800F08680D5F81C2112B96F
:10295000C5F81C01F8BD05F59074043205F5487002
:10296000234632F8021B43F8041B8342F9D105F5D4
:102970004873321D05F5A46032F8021B43F8041BAE
:102980008342F9D1D5F818217AB105F5927302F591
:10299000007733F9041C32F9020B00FB01F1C91373
:1029A00023F8041C0433BA42F3D105F5E56021464F
:1029B00006F086FB95F8203773B995F82107E258A1
:1029C00022FB02F2E918B2FBF0F2C1F82025043331
:1029D000B3F5007FF3D111E095F8217705F5A462F6
:1029E0000023E15821FB01F11068B1FBF7F1084425
:1029F00042F8040B0433B3F5007FF2D195F8203789
:102A00000133DBB285F8203795F821279A421CD193
:102A1000002385F8203705F21C500F4F50F8042F83
:102A2000B2FA82F137F81110B2FBF1F421444908EF
:102A3000B2FBF1F21144EC18490821830233B3F5DB
:102A4000807FEBD1012385F82237D5F81C0104F0F3
:102A50001DFEC5F81C61F8BDF8F50000044BD878E0
:102A6000C0B2044B1B6898421CBF024B18607047F1
:102A700000600640E0A3FF1F08B5FFF7EFFF10F06E
:102A8000020FFAD00222014BDA7008BD0060064046
:102A90000B4B1B7813B90B4B1B7873B10A4B1B788C
:102AA000202B03D90123037100207047581C064ACC
:102AB0001070064AD154012070470020704700BFB3
:102AC0009AC4FF1F5CC4FF1F9BC4FF1F38C4FF1FB5
:102AD000704700BF024B1878024B1B78C01A704732
:102AE00099C4FF1F98C4FF1F074B1B78074A127831
:102AF0009A4205D9591C044A1170054AD05C7047A6
:102B00004FF0FF30704700BF98C4FF1F99C4FF1FEC
:102B100060C4FF1F054B1B78054A12789A4286BF96
:102B2000044AD05C4FF0FF30704700BF98C4FF1FCD
:102B300099C4FF1F60C4FF1F08B5104BDB7813F06A
:102B4000200F0CD1122004F043F90D4B1B689BB1F0
:102B500000210C4A11700C4A1078984708BD0B4AA6
:102B600013780133DBB21370012B02D8084B1B78AA
:102B700013B9122004F02CF908BD00BF0060064014
:102B800034C4FF1F98C4FF1F99C4FF1F84C4FF1FD4
:102B90005CC4FF1F38B514460D4B1B7813B90D4BA1
:102BA0001B7893B10C4B1D78C5F12103A34202D2CF
:102BB000012202711C4609482844224602F072FE96
:102BC0002544054B1D70204638BD002038BD00BF90
:102BD0009AC4FF1F5CC4FF1F9BC4FF1F38C4FF1FA4
:102BE000002202714FF47A7181600273014A02601F
:102BF000704700BF48F6000000220C4B1A700C4BC7
:102C0000196841F0400119600A4B9A704FF419722B
:102C100009490A6004390A6027225A7004229A710D
:102C200020225A7180229A70704700BF5CC4FF1F37
:102C300034800440006006400CA0044008B53D4BC1
:102C4000DB78DBB213F0100F06D01021394AD170B7
:102C500013F0400F03D108BD13F0400F2CD013F038
:102C6000040F1BD00023344A1370344A1370344BC2
:102C70001B681BB19847314B1B782BB901222F4B96
:102C80001A7000222F4B1A702A4BD0229A702D4AAC
:102C900012781A7101222C4B1A7009E00122264B7E
:102CA0001A700022294B1A70224BC0229A701B798D
:102CB0000222204BDA7008BD1E4A927812F0100FE3
:102CC0001CD013F0010F14D11F4B1B781B4A127834
:102CD0009A4207D9591C1C4A11701A4AD25C154BEA
:102CE0001A7102E00022134B1A71D022114B9A7014
:102CF0001BE0104BC0229A701B7916E00022144B87
:102D00001A7012201349032204F01AF8094B1B7998
:102D1000DAB20E4B1B781F2B07D80749097821B16F
:102D2000581C0A4908700C49CA540222014BDA7037
:102D300008BD00BF0060064030C4FF1F9BC4FF1FDA
:102D400080C4FF1F38C4FF1F9CC4FF1F99C4FF1F0E
:102D500084C4FF1F392B000060C4FF1F4900044BCF
:102D600019700123034A1370034A1370704700BFA0
:102D700038C4FF1F9AC4FF1F9BC4FF1F2DE9F041F9
:102D80008846364B1222DA709B7813F0200F03D05E
:102D9000B422324B9A701AE0314B1D681C460BE08E
:102DA00023685B1B0F2B07D92C4B00229A708022C3
:102DB0009A700420BDE8F081FFF750FE10F0200F5C
:102DC000EED10022274B1A70B022244B9A70FFF7E5
:102DD00045FE10F0200FFAD0234B1B787BB3002464
:102DE000224E1E4D204F335D2B71FFF737FE10F042
:102DF000020F02D110F0200FF7D10223EB70FFF782
:102E00002DFE10F0100F04D08022144B9A70042075
:102E100018E010F0200F04D18022104B9A7004208B
:102E200010E010F0010F04D0002C0CBF0220032092
:102E30000BE00134E4B23B78A342D4D801E0002097
:102E400000E00020B8F1000F02D08022034B9A70FE
:102E50000022074B1A70BDE8F08100BF00600640F9
:102E60003CC9FF1F5CC4FF1F9BC4FF1F38C4FF1F6A
:102E70009AC4FF1F2DE9F8430D46144698460023D7
:102E80003C4A13703C4A13703C4B1222DA709B7818
:102E900013F0200F03D0B422384B9A700AE0FFF7EA
:102EA000DDFD10F0200FFAD10022354B1A70B02250
:102EB000324B9A706D0045F00105EDB22F4B1D713C
:102EC000FFF7DAFDFFF7CAFD10F0110005D08022F0
:102ED0002A4B9A700020BDE8F88344B9B8F1000F7E
:102EE0000CBFA0228022254B9A70BDE8F883012CEC
:102EF00005D1224BA8229A701B79002525E01F4B93
:102F0000A0229A701B79012C1CD91E4DA61EF6B268
:102F1000013C5FFA84F90024184FFFF7ADFDB4427D
:102F200008D1164AA8239370631CDDB21279164BA0
:102F30001A550AE00134E4B23A7905F8012F4C45FC
:102F4000EBD101E0002500E02546FFF795FD0B4B96
:102F5000B0229A70681CC0B21A790B4B5A55B8F15E
:102F6000000F02D08022054B9A70034B1870BDE809
:102F7000F88300BF98C4FF1F99C4FF1F006006407C
:102F80005CC4FF1F5FC4FF1F60C4FF1F08B501239F
:102F9000FFF770FF08BD00BF08B5C9B2FFF7DEFE3E
:102FA00008BD00BF08B50121FFF7E8FE08BD00BF5E
:102FB00008B50248FFF714FE08BD00BF88C4FF1F14
:102FC000084B00225A719A719A721A730221196180
:102FD00083F8302083F83C200349996383F83E202E
:102FE000704700BFA0C4FF1F68F6000008B5104B73
:102FF0001B78D3B10F4B18680F4B19680F4A00F0BC
:1030000085FB034690B10E4B196849B1094B18680E
:103010000A4A00F07BFB034640B10022084B1A60CD
:103020000022034B1A70012300E00123184608BD5B
:1030300008C7FF1F04C5FF1FE4A3FF1F08C5FF1F2C
:1030400000C5FF1F38B504460D460C4B1B68834274
:103050000DD0FFF7CBFF034670B1094B186821462E
:10306000084A00F0FFFA034630B1044B1C60064BDF
:103070001A7815431D700123184638BDE4A3FF1FBD
:1030800004C5FF1F08C5FF1F08C7FF1F70B5044612
:103090000D461646C36801338B4225D3C36990F8A9
:1030A0002020102A0CBF080AC8091844104B1B68BE
:1030B000984204D00021FFF7C5FF0346A8B194F859
:1030C0002030102B06D1EDB20A4B33F815303360A7
:1030D00001230AE005F07F05064B53F8253023F065
:1030E00070433360012300E00023184670BD00BF29
:1030F000E4A3FF1F08C5FF1FF8B504460D46174699
:10310000012931D9C368013399422FD8C36990F896
:103110002020102A0CBF0E0ACE091E44164B1B6835
:103120009E4205D030460021FFF78CFF034600B3D6
:1031300094F82030102B04D1EDB2104B23F8157009
:1031400004E005F07F050D4B43F825700C4B1A7811
:1031500042F001021A70237E012B09D9A3681E4494
:10316000084B1E60012304E0002302E0002300E07E
:1031700001231846F8BD00BFE4A3FF1F08C5FF1FC9
:1031800008C7FF1F00C5FF1F2DE9F04F85B0064699
:103190008A46009217681FB101370023019305E0AA
:1031A0000768012914BF002301230193F36803F189
:1031B0000108DBB13C4600254FF00209CB46A04593
:1031C0003CBF4C465F463046214603AAFFF75EFFF0
:1031D00060B1039B0BB1671C03E0631CDB1B534511
:1031E00006D001350134F368AB42E8D800232AE069
:1031F000304621466FF07042FFF77EFF034648B924
:1032000021E0651E304629462246FFF775FF03463A
:1032100018B918E0BC42F4D803E0BD4201D92C46ED
:10322000EFE7009B196829B130463A46FFF764FF83
:10323000034640B1009B1F60019B1BB10137376003
:10324000012300E00123184605B0BDE8F08F00BF60
:10325000084B1A6842F480621A604FF00042DA624A
:10326000FF225A631A46D36A002BFCDA014B986B93
:10327000C0B2704700C0024010B50446164A174B52
:103280001A6010F0010F02D0FFF7E2FF013C052C9D
:1032900004D9032100231148114A02E06108F9D141
:1032A00004E04263023C01338B42FADB4CB10B4A2F
:1032B0000B48D36A13F0F00FFBD05063936B023CC2
:1032C000F7D1002907DD054AD36A13F0F00FFBD0D0
:1032D000936B0139F8D110BD00041F8000C002407B
:1032E000FFFF0090064B1A6842F480621A604FF0AC
:1032F0000042DA6258631A46D36A002BFCDA704740
:1033000000C0024008B50079012103F089FD114B8E
:103310001B78F3B100220F4B1A700F4B1B78C3B10F
:1033200013F0010F03D00D4B1A680D4B1A600A4BB6
:103330001B7813F0020F03D0084B5A68094B1A6030
:10334000054B1B7813F0040F03D0044B9A68064B0F
:103350001A6008BD10C7FF1FB8C7FF1FACC7FF1F0B
:1033600000E100E004E100E008E100E010B5244BDA
:103370001B78002B3ED10122214B1A70214B1A6879
:10338000214B1B78002B28D072B61F4B1B7813F0F3
:10339000010F07D01D4B1C681D49096821401D4CB9
:1033A00021601960184B1B7813F0020F07D01A4BDD
:1033B0001C68174949682140164C61601960124B1E
:1033C0001B7813F0040F07D0144B1C681049896850
:1033D0002140104CA160196062B6114BDB6893422A
:1033E00008D00F4B0F491960DA6042F080421A6131
:1033F0000D4A1A600079002103F012FD10BD00BFD4
:1034000010C7FF1F0CC7FF1FB8C7FF1F80E100E0F8
:10341000A0C7FF1FACC7FF1F84E100E088E100E008
:1034200000C0024001401F0000001F8038B5044664
:1034300083797BB1008940F20123984205D840F29C
:103440000225281AFFF718FF25812046FFF75AFFAB
:103450000023A37138BD00BF70B50E46084B1C6831
:103460001D46A4B2FFF7F4FEFF2805D02B689BB2DF
:103470001B1BB342F6DB01E0012070BD002070BDD4
:103480003CC9FF1FF8B505460F461646FFF7CEFFAD
:103490002846FFF76BFF28464FF49671FFF7DCFFD5
:1034A00047F04000FFF71EFF182426FA04F0C0B2D0
:1034B000FFF718FF083C14F1080FF6D127B1082FC9
:1034C0000CBF8720FF2000E09520FFF70BFF0024B2
:1034D000FFF7BEFEE87210F0800F03D00134B4F5A0
:1034E000807FF5D1F8BD00BF70B504460E4B1D6856
:1034F0001E46ADB208E033689BB25B1BB3F5967F06
:1035000002DD0F23637108E0FFF7A2FEE072FF28DF
:10351000F1D0FE2806D00D2363712046FFF7F2FE9E
:10352000002070BD012070BD3CC9FF1FF8B50546E5
:103530000C4617461E46002B00F089801344B3F555
:10354000007F7FDC83792BB103688B4202D1038932
:10355000934216D92C602B7B032B18BF640228469C
:1035600011212246FFF78EFF10B103236B7169E032
:103570002846FFF7B9FF002864D000232B810123E0
:10358000AB713846FFF778FE3046334A334B1A604A
:1035900016F0010F07D0069A541CFFF759FE069B40
:1035A0001870701E0694052804D9032700232B49A0
:1035B0002B4A02E04708F9D103E04A6301339F42F6
:1035C000FBDCA0EB4700069A1044824219D2144655
:1035D0002249DFF88CC0CA6A12F0F00FFBD0C1F8A4
:1035E00034C08B6BC3F30722227063700234A04295
:1035F000F1D8069AD343034423F0010302331A445B
:10360000069200EB4700069B98420DD91C461349D1
:10361000CA6A12F0F00FFBD08B6BC3F30722227043
:1036200063700234A042F3D82B8933449BB22B81C0
:10363000AA7A12B1B3F5007F0BD32846FFF7F6FE46
:103640000120F8BD2846FFF75DFE0020F8BD0120EF
:10365000F8BD0120F8BD00BF00041F8000C002407B
:10366000FFFF009000B583B0009200224FF400737A
:10367000FFF75CFF03B05DF804FB00BFF8B506463A
:10368000214B186840F4806018604FF00040D86209
:103690005963114602F500770446DA6A002A0FDB07
:1036A000FBE7DA6A002A14DBFBE7D36A002B1CDB9A
:1036B000FBE7112373713046FFF724FE0020F8BDAD
:1036C00008460A781D6845F480651D60DC625A630F
:1036D000E7E742781D6845F480651D60DC625A6347
:1036E0000231B942D9D1084ADFE7FF20FFF7FAFDDE
:1036F000FF20FFF7F7FDFFF7ABFDF07200F01F00B2
:103700000528D6D10120F8BD00C0024038B50446D6
:1037100015460B4611B9122343712BE0027B032A95
:1037200018BF4B0218211A46FFF7ACFE10B1042354
:1037300063711FE02046FE212A46FFF79FFFC8B1B4
:1037400020464FF41671FFF787FE10B915236371F9
:1037500010E020460D210022FFF794FE10B9FFF77C
:1037600077FD10B11423637104E02046FFF7CAFD12
:10377000012038BD2046FFF7C5FD002038BD00BF41
:10378000014A024B1A607047011001380CC7FF1F35
:1037900010B50446006A012104F10802FFF7F4FCA9
:1037A000034650B1E3693BB9A368E361637963F011
:1037B0007F036371012300E00123184610BD00BFA1
:1037C00010B504460069FFF73DFC20B1207D034B96
:1037D00003EB401010BD002010BD00BF08C5FF1F47
:1037E000F8B504460F4683797BB382698A422BD3AE
:1037F000022B02D1E160012327E021B9002383607D
:10380000C360012321E0C368026A157C09355A1E92
:10381000EA40013921FA05F5AA4200D813B9E36953
:10382000A3600AE0AD1A08E0206AA1683246FFF7FB
:103830002DFC013D034610B907E004F10806002DF8
:10384000F2D1E760012300E000231846F8BD00BF75
:1038500038B50446807918B394F90530002B1BDA8B
:1038600020460121FFF7ACFF0546C0B1A379012B2B
:103870009CBFA369C361A38B4383E38B8382094B02
:103880001B682BB1183005F1160198472B8B6B8202
:10389000637903F07F036371FFF7A8FB38BD002055
:1038A00038BD00BF14C7FF1F2DE9F04F85B0044697
:1038B000884601928379012B40F0BE80437913F052
:1038C000020F00F0B98013F0040F08D08169C368BB
:1038D0008B4204D0FFF784FF002800F0AD80019AEE
:1038E000002A00F08C801646DFF8B0A1DFF8B0B1F6
:1038F000206AE76890F8049009F1FF3909EA57292E
:10390000C7F3080719F0FF0929D1002F40F0AA805A
:10391000A16851B9E36933B92046FFF739FF0028A0
:1039200040F08E8088E0A3608AE003AAFFF7AEFB38
:10393000002800F0A880039B226A92F820004FF62E
:10394000F871524A102808BF0A46934205D3204610
:10395000FFF71EFF002873D16EE0A36070E0C7F58B
:103960000075ADB2AE4238BF3546A368023B027C5B
:103970009340426913449944B5F5007F12D1DBF8B6
:1039800000304B4504BF4FF0FF33CBF80030404BC5
:10399000186849464246FFF7B9FE00284CD008F5A2
:1039A000007824E07FB9E268A3699A420BD3FFF75D
:1039B0001DFB002840D0CBF80090364A137843F026
:1039C0000103137005E048460121FFF73BFB002887
:1039D00032D057447819874209D03B46424612F804
:1039E000011B03F8011B8342F9D1C71BB844761BA6
:1039F000B6B2E3681D44E560002E7FF479AFE3685A
:103A0000A269934205D9A361637963F07F0363716F
:103A100008E0214B1B682BB1019B1BB1637963F05C
:103A20007F036371637913F0080F03D02046FFF71B
:103A30000FFF08B1019826E001232371002022E046
:103A4000B6F5007F34BF35464FF40075236AA2688F
:103A5000023A197C02FA01F95B699944B5F5007FD5
:103A6000A1D18CE7C7F50075ADB2AE4238BF35467F
:103A7000A368023B027C03FA02F943699944B5F555
:103A8000007FA0D17BE705B0BDE8F08FF8FFFF0F06
:103A900004C5FF1F08C7FF1F14C7FF1F08C5FF1F6E
:103AA000E4A3FF1F00B583B002AB03F8011D194664
:103AB0000122FFF7F9FE03B05DF804FB002202606B
:103AC0000A2181808271C271704700BF38B50446F7
:103AD000CDB2C571284603F0C7F90023A37128466B
:103AE00003F0C2F908B10323A371024B1B682360E2
:103AF00038BD00BF3CC9FF1F8180704738B5044600
:103B0000C07903F0B1F9003018BF0120A37903F0A8
:103B1000F702A271C3F34001884206D00E4B1B6826
:103B2000236082F00202A27112E00B490D68216845
:103B3000691AA588A9420BD303F00103984207D064
:103B4000054B1B68236082F0010242F00802A2715B
:103B5000A079C0F3C00038BD3CC9FF1F807900F0D8
:103B6000010070472DE9F04F83B007460C4616461A
:103B70009846BDF93030BDF834B0C2EB0309B9F155
:103B8000000FB8BFC9F10009C1EB0802002AB8BF95
:103B900052429145D4BF4FF000094FF00109B9F1ED
:103BA000000F04D042469846134634460E4644451C
:103BB00005DD32461E461346224644469046C4EB77
:103BC000080292B20092C6EB030ABAF1000FB8BF26
:103BD000CAF1000A15B205EBD575C5F34F054FF6CE
:103BE000FF729E42B8BF01220192444524DCB9F124
:103BF000000F08D03B68D3F808C03846314622464B
:103C00005B46E04707E03B68D3F808C038462146EA
:103C100032465B46E047CAEB0505ABB29DB215F4F0
:103C2000004F05D0019A164436B2009D1D44ADB236
:103C3000013424B2A045DADA03B0BDE8F08F00BF4A
:103C40002DE9F04782B00446894690469A46BDF970
:103C50002860BDF82C50076800957F69B847236835
:103C6000721E424400955F692046494612B253468F
:103C7000B847236800951F692046494642463346A7
:103C8000B84723680AF1FF3A0AEB090100951D695C
:103C9000204609B242463346A84702B0BDE8F08745
:103CA00010B582B00468013B13441BB20093BDF809
:103CB00010300193E4680B46A04702B010BD00BF6E
:103CC00030B583B00468013B0B440092BDF8185036
:103CD0000195E4681BB2A04703B030BD2DE9F04761
:103CE00082B005460C469246BDF92890BDF82C805E
:103CF000CF18B9420CDA2968CDF800800E69284641
:103D0000214652464B46B047013424B2BC42F2DB56
:103D100002B0BDE8F08700BF10B582B00468B0F90A
:103D20000A30B0F90C2000920191E46900210A46A2
:103D3000A04702B010BD00BF704700BF30B40024E0
:103D40000471094D0560C180028141818281C47581
:103D5000C4810482012282754FF6FF718182418203
:103D60000276447630BC704778F600002DE9F04FBB
:103D70008DB081460991BDF858000390BDF85C10E4
:103D800004919DF860A0B9F90A100998814240F3A6
:103D90008F80B9F90C10914240F38A800AEB4A01F6
:103DA00000EB4101012900F1838002EBCA010129E6
:103DB0007ED499F8191019B9AF2B84BF0133DBB247
:103DC00003EB830306210A91002006903A49194427
:103DD0000B91D04692B2079202F108031FFA83FBBF
:103DE00006994BB2052B52D00B9AD55C50E015F0DA
:103DF000010F1AD0BAF1010F09D1D9F80030D3F868
:103E000008C04846089922B2039BE0472BE0D9F846
:103E100000200FFA8AF3009303980190D2F81CC097
:103E20004846059932B2E0471DE00499039A914251
:103E300019D0BAF1010F09D1D9F80030D3F808C070
:103E40004846089922B2049BE0470CE0D9F80020CC
:103E50000FFA8AF3009304980190D2F81CC04846E8
:103E600005993AB2E0476D084644B6B24744BFB23E
:103E70000134A4B25C45BAD106994B1CDBB206935F
:103E80000A9A531E13F0FF030A93A9D110E00025EC
:103E9000069B5AB292B2099883B20AFB0231079E7E
:103EA0003446374609B2059113441BB208939EE786
:103EB0000DB0BDE8F08F00BFA0F6000010B584B0D3
:103EC00004460B460A2907D1827D038A03EBC2030D
:103ED00003820023C38127E00D2925D0B0F90E10FD
:103EE000B0F91020408A0090A08A0190A07D029035
:103EF0002046FFF73BFFA37D03EB4301E28902EB82
:103F0000410292B2E281217E71B112B2B4F90A107B
:103F1000A3EB830001EB40018A4205DD228A02EB1C
:103F2000C30323820023E381012004B010BD00BF3E
:103F3000C1810282704700BF81824182704700BF09
:103F40000176704710B582B00468B0F90A30B0F954
:103F50000C2000920191E46900210A46A04702B0BA
:103F600010BD00BFF8B504460F4616461D46802119
:103F7000A022FFF7E3FE084B236084F82C7084F83E
:103F80002D6084F82E500123E376002384F830302E
:103F900084F82F302046F8BDA8FB000070B4836A77
:103FA0001A7890F8344022EA04021A70436A1A78A8
:103FB00090F8334022EA04021A70C37E6BB11C4BA6
:103FC0001A6842F480621A604FF00042DA62596364
:103FD0001A46D36A002B22DBFBE7082280230B4220
:103FE00006D0C469267890F831503543257006E034
:103FF000C469257890F8316025EA06052570046AC1
:10400000267890F8325035432570046A257890F868
:10401000326025EA060525705B08013ADFD1436A64
:10402000197890F833200A431A7070BC704700BFAB
:1040300000C0024008B500290CBF20212121FFF754
:10404000ADFF08BD70B4836A1C7890F83420224319
:104050001A70436A1A7890F8334022EA04021A7000
:10406000C37E6BB11B4B1A6842F480621A604FF03A
:104070000042DA6259631A46D36A002B22DBFBE75F
:10408000082280230B4206D0C469267890F831506C
:104090003543257006E0C469257890F8316025EA3B
:1040A00006052570046A267890F83250354325704D
:1040B000046A257890F8326025EA060525705B08C9
:1040C000013ADFD1436A197890F833200A431A7015
:1040D00070BC704700C002402DE9F04106464D1CFF
:1040E0000F7826E02C46304614F8021BFFF756FFE7
:1040F0006B7803F0800803F07F035D1EEDB24BB1D7
:1041000001352544304614F8011BFFF79BFFAC42F4
:10411000F8D100E02546B8F1000F08D06C1C2878D3
:10412000FF2808BF4FF4FA7002F0F0FE2546013F69
:10413000FFB2002FD6D1BDE8F08100BF10B5044614
:10414000002380F8363080F8353090F82D000121BA
:1041500002F098FE94F82C00012102F093FE0F4B20
:1041600094F82C2053F83220626294F82D2053F8F2
:104170003230A362012384F8333084F83430E37E94
:1041800083B100F05BFF064801F0B0F8012000F0B9
:104190009FFF002000F0B2FF29E000BFA4FE000056
:1041A0000110013894F83000012102F06BFE94F800
:1041B0002F00012102F066FE214A94F8303052F8B7
:1041C0003330236294F82F1052F83120E26101223B
:1041D00084F8322084F831201A7802F0FE021A7036
:1041E000E3691A7894F8311022EA01021A70636ABE
:1041F0001A7894F8331022EA01021A7094F82E000B
:1042000000B3012102F03EFE94F82E00012102F0DD
:1042100007FE4FF4FA7002F079FE94F82E000021A8
:1042200002F0FEFD4FF4FA7002F070FE94F82E00DA
:10423000012102F0F5FD4FF4FA7002F067FE01E093
:10424000A4FE00002046F021FFF7A8FE20465A21D8
:10425000FFF7F8FE20465A21FFF7F4FE2046FC2126
:10426000FFF79CFE20465A21FFF7ECFE20465A211C
:10427000FFF7E8FE20462621FFF790FE20460121A9
:10428000FFF7E0FE2046FA21FFF788FE20460221D4
:10429000FFF7D8FE20461F21FFF7D4FE204600215D
:1042A000FFF7D0FE20461021FFF7CCFE204622214A
:1042B000FFF7C8FE20463021FFF7C4FE2046382114
:1042C000FFF7C0FE20463A21FFF7BCFE20463A2108
:1042D000FFF7B8FE20463A21FFF7B4FE20463A2108
:1042E000FFF7B0FE20463A21FFF7ACFE20463D2105
:1042F000FFF7A8FE20460221FFF7A4FE2046012179
:10430000FFF7A0FE2046FB21FFF748FE20462121B3
:10431000FFF798FE20460021FFF794FE2046022179
:10432000FFF790FE20460421FFF78CFE2046072170
:10433000FFF788FE20460A21FFF784FE20460B2166
:10434000FFF780FE20460C21FFF77CFE20460C2163
:10435000FFF778FE20461621FFF774FE20461E2147
:10436000FFF770FE20463021FFF76CFE20463F210C
:10437000FFF768FE20460121FFF764FE2046022178
:10438000FFF760FE2046FD21FFF708FE20460021D2
:10439000FFF758FE20460021FFF754FE204600217B
:1043A000FFF750FE20461721FFF74CFE2046102154
:1043B000FFF748FE20460021FFF744FE204601217A
:1043C000FFF740FE20460121FFF73CFE204600217A
:1043D000FFF738FE20461F21FFF734FE20461F213D
:1043E000FFF730FE2046F421FFF7D8FD20460021DC
:1043F000FFF728FE20460021FFF724FE204600217B
:10440000FFF720FE20460021FFF71CFE204600217A
:10441000FFF718FE20463F21FFF714FE20463F21FC
:10442000FFF710FE20460721FFF70CFE2046002173
:10443000FFF708FE20463C21FFF704FE2046362108
:10444000FFF700FE20460021FFF7FCFD20463C213F
:10445000FFF7F8FD20463621FFF7F4FD2046002146
:10446000FFF7F0FD2046F521FFF798FD20460021DB
:10447000FFF7E8FD20467021FFF7E4FD20466621A6
:10448000FFF7E0FD20460021FFF7DCFD204600217C
:10449000FFF7D8FD20460021FFF7D4FD204600217C
:1044A000FFF7D0FD20460021FFF7CCFD204600217C
:1044B000FFF7C8FD20460021FFF7C4FD20466D210F
:1044C000FFF7C0FD20466621FFF7BCFD2046062110
:1044D000FFF7B8FD2046F621FFF760FD20460221D8
:1044E000FFF7B0FD20460021FFF7ACFD20463F213D
:1044F000FFF7A8FD20460021FFF7A4FD204600217C
:10450000FFF7A0FD20460021FFF79CFD2046022179
:10451000FFF798FD20460021FFF794FD2046062175
:10452000FFF790FD20460121FFF78CFD204600217A
:10453000FFF788FD2046F221FFF730FD20460021DD
:10454000FFF780FD20460121FFF77CFD2046032177
:10455000FFF778FD20460821FFF774FD204608216B
:10456000FFF770FD20460421FFF76CFD2046002177
:10457000FFF768FD20460021FFF764FD204600217B
:10458000FFF760FD20460021FFF75CFD204600217B
:10459000FFF758FD20460121FFF754FD204600217A
:1045A000FFF750FD20460021FFF74CFD2046042177
:1045B000FFF748FD20460821FFF744FD204608216B
:1045C000FFF740FD2046F821FFF7E8FC20461121C7
:1045D000FFF738FD2046F721FFF7E0FC2046C82111
:1045E000FFF730FD20462021FFF72CFD204600215B
:1045F000FFF728FD20460021FFF724FD2046F32188
:10460000FFF7CCFC20460021FFF71CFD20460021CF
:10461000FFF718FD20461121FFF7C0FC322002F001
:1046200075FC2046F321FFF7B9FC20460021FFF777
:1046300009FD20460121FFF705FD322002F066FC4E
:104640002046F321FFF7AAFC20460021FFF7FAFCE1
:1046500020460321FFF7F6FC322002F057FC2046EB
:10466000F321FFF79BFC20460021FFF7EBFC2046DF
:104670000721FFF7E7FC322002F048FC2046F32137
:10468000FFF78CFC20460021FFF7DCFC20460F21C1
:10469000FFF7D8FC322002F039FC2046F421FFF766
:1046A0007DFC20460021FFF7CDFC20460421FFF7CA
:1046B000C9FC20460021FFF7C5FC20460021FFF77A
:1046C000C1FC20460021FFF7BDFC20463F21FFF73B
:1046D000B9FC20463F21FFF7B5FC20460721FFF734
:1046E000B1FC20460021FFF7ADFC20463C21FFF73E
:1046F000A9FC20463621FFF7A5FC20460021FFF744
:10470000A1FC20463C21FFF79DFC20463621FFF707
:1047100099FC20460021FFF795FC322002F0F6FBC1
:104720002046F321FFF73AFC20460021FFF78AFCE0
:1047300020461F21FFF786FC322002F0E7FB2046CF
:10474000F321FFF72BFC20460021FFF77BFC2046DE
:104750007F21FFF777FC322002F0D8FB2046F321BF
:10476000FFF71CFC20460021FFF76CFC2046FF21D0
:10477000FFF768FC322002F0C9FB2046FD21FFF75D
:104780000DFC20460021FFF75DFC20460021FFF7CD
:1047900059FC20460021FFF755FC20461721FFF762
:1047A00051FC20461021FFF74DFC20460021FFF769
:1047B00049FC20460021FFF745FC20460121FFF778
:1047C00041FC20460021FFF73DFC20461621FFF763
:1047D00039FC20461621FFF735FC2046F421FFF76F
:1047E000DDFB20460021FFF72DFC20460921FFF7C5
:1047F00029FC20460021FFF725FC20460021FFF779
:1048000021FC20460021FFF71DFC20463F21FFF739
:1048100019FC20463F21FFF715FC20460721FFF732
:1048200011FC20460021FFF70DFC20463C21FFF73C
:1048300009FC20463621FFF705FC20460021FFF742
:1048400001FC20463C21FFF7FDFB20463621FFF707
:10485000F9FB20460021FFF7F5FB20463621FFF744
:104860009DFB20460821FFF7EDFB20463521FFF791
:1048700095FB20460021FFF7E5FB20463A21FFF794
:104880008DFB20460521FFF7DDFB962002F03EFB65
:1048900020462921FFF782FB20462C21FFF77EFBD3
:1048A00010BD00BF38B504460D461349FFF746FC5E
:1048B00075B920461149FFF70FFC022384F8353003
:1048C000012384F8363020460D49FFF705FC11E03E
:1048D00020460C49FFF700FC20460949FFF7FCFB86
:1048E000022D07D120463621FFF758FB2046C02174
:1048F000FFF7A8FBA57638BDF0FB0000E0FB000049
:104900002CFC0000D0FB0000F8B504460F4615460D
:104910001E462A21FFF742FB20460021FFF792FBAB
:1049200094F83530F9182046C9B2FFF78BFB2046C2
:104930000021FFF787FB94F83530F1182046C9B203
:10494000FFF780FB20462B21FFF728FB20460021A4
:10495000FFF778FB94F83630E9182046C9B2FFF724
:1049600071FB20460021FFF76DFB94F836309DF86F
:10497000181019442046C9B2FFF764FB20462C21C9
:10498000FFF70CFBF8BD00BFF0B583B004461D4631
:104990000029C0F29180B0F90A308B4240F38C803C
:1049A000002AC0F28980B0F90C30934240F3848031
:1049B000C9B2D2B24B1C501CC0B200902046DBB230
:1049C000FFF7A2FFA36A197894F834200A431A70FB
:1049D000636A1A7894F8331022EA01021A702F12CF
:1049E000E37E73B1354B1A6842F480621A604FF06F
:1049F0000042DA62FFB25F631A46D36A002B22DB01
:104A0000FBE7082180223A4206D0E3691E7894F839
:104A100031003043187006E0E369187894F831608B
:104A200020EA06001870206A067894F83230334382
:104A30000370206A037894F8326023EA0603037057
:104A400052080139DFD1EDB2E37E6BB11B4B1A681E
:104A500042F480621A604FF00042DA625D631A46E7
:104A6000D36A002B22DBFBE7082180222A4206D0F2
:104A7000E3691E7894F831003043187006E0E3696A
:104A8000187894F8316020EA06001870206A0678D9
:104A900094F8323033430370206A037894F832601C
:104AA00023EA0603037052080139DFD1636A1978DB
:104AB00094F833200A431A7003B0F0BD00C00240DE
:104AC0002DE9F04F85B004461E46BDF83850B0F9C8
:104AD0000A00884240F3AD80A08903B2934240F3BC
:104AE000A8809719013F9F42A4BFC2EB000006B205
:104AF000CBB2D2B2511E3144C9B200912046194600
:104B0000FFF702FF2A12D7B2EBB2A16A0D7894F830
:104B1000340028430870616A087894F8335020EA1A
:104B2000050008704FF008094FF0800842484FF028
:104B3000004C039772E0E27E5AB1026842F4806250
:104B40000260C0F82CC0039A4263C26A002A2CDBC0
:104B5000FBE7494642463A4209D0E56995F800B07C
:104B600094F831A04BEA0A0A85F800A008E0E5694C
:104B700095F800A094F831B02AEA0B0A85F800A055
:104B8000256A95F800B094F832A04BEA0A0A85F835
:104B900000A0256A95F800A094F832B02AEA0B0A22
:104BA00085F800A052080139D5D1E27E52B10268E1
:104BB00042F480620260C0F82CC04363C26A002ADB
:104BC0002CDBFBE7494642461A4209D0E56995F8D5
:104BD00000B094F831A04BEA0A0A85F800A008E07A
:104BE000E56995F800A094F831B02AEA0B0A85F837
:104BF00000A0256A95F800B094F832A04BEA0A0AA2
:104C000085F800A0256A95F800A094F832B02AEA49
:104C10000B0A85F800A052080139D5D1013E36B201
:104C2000B6F1FF3F87D1636A197894F833200A43BD
:104C30001A7005B0BDE8F08F00C002402DE9F04FBA
:104C400085B004461E46BDF83880408905B28D42C5
:104C500040F3AF80B4F90C30934240F3AA808D1931
:104C6000013D03B29D42A4BFC1EB000006B2C9B230
:104C7000D2B24B1E334400922046DBB2FFF744FE13
:104C80004FEA2822D7B25FFA88F3A16A0D7894F828
:104C9000340028430870616A087894F8335020EA99
:104CA000050008704FF008094FF0800842484FF0A7
:104CB000004C039772E0E27E5AB1026842F48062CF
:104CC0000260C0F82CC0039A4263C26A002A2CDB3F
:104CD000FBE7494642463A4209D0E56995F800B0FB
:104CE00094F831A04BEA0A0A85F800A008E0E569CB
:104CF00095F800A094F831B02AEA0B0A85F800A0D4
:104D0000256A95F800B094F832A04BEA0A0A85F8B3
:104D100000A0256A95F800A094F832B02AEA0B0AA0
:104D200085F800A052080139D5D1E27E52B102685F
:104D300042F480620260C0F82CC04363C26A002A59
:104D40002CDBFBE7494642461A4209D0E56995F853
:104D500000B094F831A04BEA0A0A85F800A008E0F8
:104D6000E56995F800A094F831B02AEA0B0A85F8B5
:104D700000A0256A95F800B094F832A04BEA0A0A20
:104D800085F800A0256A95F800A094F832B02AEAC8
:104D90000B0A85F800A052080139D5D1013E36B280
:104DA000B6F1FF3F87D1636A197894F833200A433C
:104DB0001A7005B0BDE8F08F00C002402DE9F04F39
:104DC00087B004460493BDF94070BDF84450438950
:104DD00018B2884240F3CC80A08906B2964240F3D4
:104DE000C780DDF810E08E440EF1FF3E1EB2B645DE
:104DF00002DB5B1A1BB20493D619013E03B29E423A
:104E0000A4BFC2EB000007B2C9B2D2B24B1E0498D5
:104E10000344501E3844C0B200902046DBB2FFF776
:104E200073FD2A120592D6B2EDB2A36A197894F8EE
:104E300034200A431A70636A1A7894F8331022EA0D
:104E400001021A70002F40F38D8003974A484FF0FB
:104E5000004C4FF008084FF080097BE0E37E5BB127
:104E6000036843F480630360C0F82CC0029B436373
:104E7000C36A002B2CDBFBE742464B46334209D08A
:104E8000E16991F800B094F831A04BEA0A0A81F880
:104E900000A008E0E16991F800A094F831B02AEA96
:104EA0000B0A81F800A0216A91F800B094F832A0B2
:104EB0004BEA0A0A81F800A0216A91F800A094F850
:104EC00032B02AEA0B0A81F800A05B08013AD5D17A
:104ED000E37E53B1036843F480630360C0F82CC0E1
:104EE0004563C36A002B2CDBFBE742464B462B4253
:104EF00009D0E16991F800B094F831A04BEA0A0AB0
:104F000081F800A008E0E16991F800A094F831B0C0
:104F10002AEA0B0A81F800A0216A91F800B094F8FF
:104F200032A04BEA0A0A81F800A0216A91F800A099
:104F300094F832B02AEA0B0A81F800A05B08013A23
:104F4000D5D1013F3FB2002F88D1039A531E1BB227
:104F500003933BB1049B002BF7DD1F46059AD2B2A9
:104F600002927BE7636A197894F833200A431A7037
:104F700007B0BDE8F08F00BF00C0024038B504465E
:104F80000D463621FFF70AF805F00301E175032904
:104F900036D8DFE801F0020F1C29A37E022B204641
:104FA0000CBFC021C821FFF74DF880236381A023E7
:104FB000A38138BDA37E022B20460CBFA021A821CF
:104FC000FFF740F8A02363818023A38138BDA37E2F
:104FD000022B20460CBF00210821FFF733F8802365
:104FE0006381A023A38138BDA37E022B20460CBF82
:104FF00060216821FFF726F8A02363818023A38125
:1050000038BD00BF0B4BDB68834211D0094B1A68D7
:1050100012F4804F04D0D86040F08040186170478F
:10502000044B05491960D86040F0804018611A604F
:10503000704700BF00C0024001401F00184B1A68B3
:1050400042F480521A60174B174A1A60174ADA6006
:1050500002F180421A61164A1A60164B1B7813F04F
:10506000010F07BF4FF41072134B4FF40072134B34
:105070001A60104B1B7813F0020F4FF400720CBF34
:105080000F4B104B1A600B4B1B7813F0040F07BF2C
:105090004FF410720C4B4FF400720C4B1A607047B7
:1050A0003C80044000C0024001401F000110003855
:1050B00000001F80A0C9FF1F18B0044008C00440B2
:1050C0001CB004400CC0044014B0044004C00440B0
:1050D00008B5084B1A6842F480521A60064BDB6828
:1050E00010B943F0807001E023F08070FFF78AFF71
:1050F00008BD00BF3C80044000C0024030B46A4B91
:105100001A6842F480521A601A6842F480521A6097
:10511000664BDB6803F08073002B14BF2023002351
:10512000624AD26802F00F02012A0AD9042A02D880
:1051300043F0010305E0062A94BF43F0020343F065
:1051400003035A4A126812F4804F08BF43F0400329
:10515000564A1268002AB8BF43F010031843524B56
:105160001B6813F4805F06D143F480534E4A1360EA
:105170004F4A4E4BDA6010F0400104D14B4B1A6895
:1051800042F480421A6000F020024A4B4A4C002A46
:1051900014BF22461A4610F0080F18BF42F0806272
:1051A00010F0040F10D010F0030302D1434B13434F
:1051B00023E0012B02D1424B13431EE0022B0CBF14
:1051C000404B414B134318E010F0030304D142F469
:1051D000805343F0010310E0012B04D142F48043DB
:1051E00043F0040309E0022B07BF42F4C04343F03D
:1051F000060342F4E04343F007032C4AD46804F06A
:1052000000442343D26893420FD0284A126812F414
:10521000804F02D0254AD36007E042F4804545F034
:105220000105224C2560E360226000F01000002898
:10523000264B08BF4FF4F81321B31C4A1360244BCC
:105240001B7813F0010F07BF4FF41072214B4FF47E
:105250000072214B1A601E4B1B7813F0020F4FF4A3
:1052600000720CBF1D4B1E4B1A60194B1B7813F0BC
:10527000040F07BF4FF410721A4B4FF400721A4B11
:105280001A600FE043F4804343F00103074A1360C0
:105290004FF4A27302F5F83218321360043213602F
:1052A000083A136030BC70473C80044000C00240A4
:1052B000011001380000013800000139010100022D
:1052C00004040002060600020707000200001F8017
:1052D000A0C9FF1F18B0044008C004401CB004401F
:1052E0000CC0044014B0044004C0044008B50B4B8B
:1052F0001A6842F480521A60094BDB6803F0E062DE
:1053000013F0007F05D020F4704300F4704043EAAE
:1053100010101043FFF776FE08BD00BF3C8004402C
:1053200000C002400FB410B5A2B024AB53F8042B58
:10533000019302A8802108F02DF902A806F022FEB0
:105340000246074C23685B68204602A9984720461E
:1053500001F084FE22B0BDE8104004B0704700BFE9
:1053600090C9FF1F437A03F01F039B000133807A2B
:1053700003EBA010C0B2704730B4847A04F03F044D
:10538000E4B2002343EA14632202C47A00251443E2
:105390001D432B0243EA14632202047B00251443BD
:1053A0001D432B0243EA14632202447B002514436D
:1053B0001D432B0243EA14632202807B0021104329
:1053C000194330BC704700BF08B5FFF7D5FF04F0A4
:1053D0008DFE0022014B04F0BFFE08BD0000303EF0
:1053E000D0F8B430D0F8B02002FB03F3D0F8B820E6
:1053F000B2FBF3F3C0F880305A00C0F884209A0062
:10540000C0F88820DA00C0F88C201A01C0F890207B
:105410005A01C0F894209A01C0F89820DA01C0F827
:105420009C201A02C0F8A0205A02C0F8A4205A08F2
:10543000C2679A088267DA0842671A0902675A093E
:10544000C2669A098266DA0942661A0A02665A0A2E
:10545000C2659A0A8265DA0A42651A0B02655A0B1E
:10546000C2649A0B8264DA0B42641A0C02645A0C0E
:10547000C2639A0C8263DA0C42631A0D02635A0DFE
:10548000C2629A0D8262DA0D42621A0E02625A0EEE
:10549000C2619A0E8261DA0E42611B0F036170478E
:1054A0002DE9F84F1C4BA3FB01294FEAD9094FEA1C
:1054B000C90A1A4F57444FEA4909C8464FF0020C2F
:1054C0004FF0050B164D21E001333244591E21F0F7
:1054D0000204082CF8D0AA420FD8D0F8B0308B4282
:1054E00003D1D0F8B430634514D0C0F8B010C0F880
:1054F000B4C0FFF775FFBDE8F88F0B2BE4D90CF1B2
:10550000020C5744C844BCF1800F03D046463A46CB
:105510005B46DBE7BDE8F88FCDCCCCCCFFC763E3BF
:10552000FEB3C4042DE9F0030023C3720373437375
:105530008373D0F8B4305C1ED0F8B020043A520126
:1055400042EA94024272A3018372D0F8A42002B30B
:1055500000F1A40400F110060025082705234FF0F0
:10556000010CA9464FF0070802E054F8042D82B15F
:10557000914203D3891A0CFA03F21543013B06D575
:10558000C3199A7815439D7001374D464346B4427E
:10559000EBD1BDE8F003704770B50E461546084CD8
:1055A00041782046FDF7DAFB20463146FDF770FAD8
:1055B00020462946FDF76CFA2046FDF7F3FC70BD46
:1055C00088C4FF1FF8B50E4617461D460E4C41789D
:1055D0002046FDF7C3FB20463146FDF759FA204629
:1055E00039462A46FDF7D6FA2046FDF7DBFC03468E
:1055F00038B1064829463246FFF794FE4FF0FF3097
:10560000F8BD2846F8BD00BF88C4FF1F24FD000078
:1056100008B5072100F109020623FFF7D3FF08BDF3
:1056200070B505460E46124C20466978FDF796FB8C
:1056300020463146FDF72CFA20466978FDF78EFBAF
:1056400020463146FDF724FA2046FDF7ABFC204604
:1056500069780122FDF79AFC2046FDF73BFA20B15C
:105660002046FDF741FAC0B270BDFF2070BD00BFFB
:1056700088C4FF1F38B504468921FFF7D1FF0546CE
:1056800040F0100220468921D2B2FFF785FF204664
:10569000072104F109020623FFF794FF2046892120
:1056A00005F0EF02FFF778FF204687214022FFF741
:1056B00073FF38BD38B504460D46D0F8AC308B4288
:1056C00001D1007838BDD0F8A83099428CBFC3EB27
:1056D0000103C1EB03034CF24F32934209D8FFF7A9
:1056E00021FFC4F8AC502046FFF792FF032323703C
:1056F0000EE0FFF7D5FE20462946FFF713FFC4F85A
:10570000AC50C4F8A8502046FFF7B4FF0223237022
:10571000207838BD2DE9F0410646884617461D46DB
:105720001C4C20467178FDF719FB20464146FDF7D9
:10573000AFF92046FDF736FC034638B11648294636
:105740004246FFF7EFFD0020BDE8F0811148717877
:105750002A46FDF71BFC80460646854204D00F48CA
:1057600029464246FFF7DEFD00240A4D04E02846A4
:10577000FDF7BAF938550134B44207DA2846FDF787
:10578000A9F90028F3D14046BDE8F0814046BDE8C4
:10579000F08100BF88C4FF1F50FD000098FD00008D
:1057A0002DE9F0410546032400F109070726DFF83B
:1057B0003080284631463A460623FFF7ABFF0628DD
:1057C00008D04046FFF7AEFD322001F09FFB013CC0
:1057D000EFD102E00120BDE8F0810020BDE8F081BA
:1057E000C4FD00002DE9F047824614464170294867
:1057F000FDF702FA1220002101F012FB1320002114
:1058000001F00EFB0023CAF8A830CAF8AC305046AD
:1058100087210122FFF7C0FE142001F077FB5046DC
:10582000FFF7BEFF50B31C48FFF77CFD9AF80980D4
:105830004FEA681808F104085FFA88F8A8FB0489A1
:105840005046FFF78FFD04465046FFF7BDFD064664
:105850000F46E0B2A8FB004500FB0955204629464B
:1058600004F044FC32463B4604F0A0FD04F00EFF79
:10587000CAF8B80001238AF8003008E00748FFF7AB
:1058800051FD00238AF80030054BCAF8B830504665
:10589000BDE8F08788C4FF1FF0FD000010FE000087
:1058A000C8D9CF06844641EA000313F003036DD143
:1058B000403A41D351F8043B40F8043B51F8043BD3
:1058C00040F8043B51F8043B40F8043B51F8043BDA
:1058D00040F8043B51F8043B40F8043B51F8043BCA
:1058E00040F8043B51F8043B40F8043B51F8043BBA
:1058F00040F8043B51F8043B40F8043B51F8043BAA
:1059000040F8043B51F8043B40F8043B51F8043B99
:1059100040F8043B51F8043B40F8043B51F8043B89
:1059200040F8043B51F8043B40F8043B51F8043B79
:1059300040F8043B403ABDD2303211D351F8043B19
:1059400040F8043B51F8043B40F8043B51F8043B59
:1059500040F8043B51F8043B40F8043B103AEDD2C8
:105960000C3205D351F8043B40F8043B043AF9D219
:10597000043208D0D2071CBF11F8013B00F8013BEC
:1059800001D30B8803806046704700BF082A13D3F9
:105990008B078DD010F003038AD0C3F10403D21A11
:1059A000DB071CBF11F8013B00F8013B80D331F845
:1059B000023B20F8023B7BE7043AD9D3013A11F8C5
:1059C000013B00F8013BF9D20B7803704B78437030
:1059D0008B7883706046704710B5134B1B6853B9C2
:1059E000124B1B7813F0FF0F18D0032000F052F970
:1059F0000D4B1860A8B10C4B186843885A1C03441F
:105A00001C7A03889A4206D302F08AF80022064BD9
:105A10001A60204610BD4280204610BD4FF0FF3076
:105A200010BD4FF0FF3010BDC4C7FF1FACC8FF1F33
:105A300008B50D4B1B6883B90C4B1B7813F0FF0F97
:105A400008D0032000F026F9074B186028B94FF062
:105A5000FF3008BD4FF0FF3008BD034B1B685A886C
:105A60001344187A08BD00BFC4C7FF1FACC8FF1F8E
:105A7000044B9888044B1B681BB11A885B88D31AA7
:105A80001844704768CBFF1FC4C7FF1F2DE9F047BC
:105A900004460122374B1A700E46002964D0DFF805
:105AA000E080DFF8E0909A46334FD8F8003083BBAF
:105AB00099F8003013F0FF0F06D100222D4B1A7019
:105AC0004FF0FF30BDE8F0874AF2F925042000F0DE
:105AD000FFF807280AD801238AF8003002F000F8FE
